{
  "contractName": "Stocks",
  "abi": [
    {
      "inputs": [],
      "stateMutability": "nonpayable",
      "type": "constructor"
    },
    {
      "inputs": [
        {
          "internalType": "bytes4",
          "name": "symbol",
          "type": "bytes4"
        },
        {
          "internalType": "uint256",
          "name": "price",
          "type": "uint256"
        },
        {
          "internalType": "uint256",
          "name": "volume",
          "type": "uint256"
        }
      ],
      "name": "setStock",
      "outputs": [],
      "stateMutability": "nonpayable",
      "type": "function"
    },
    {
      "inputs": [
        {
          "internalType": "bytes4",
          "name": "symbol",
          "type": "bytes4"
        }
      ],
      "name": "getStockPrice",
      "outputs": [
        {
          "internalType": "uint256",
          "name": "",
          "type": "uint256"
        }
      ],
      "stateMutability": "view",
      "type": "function",
      "constant": true
    },
    {
      "inputs": [
        {
          "internalType": "bytes4",
          "name": "symbol",
          "type": "bytes4"
        }
      ],
      "name": "getStockVolume",
      "outputs": [
        {
          "internalType": "uint256",
          "name": "",
          "type": "uint256"
        }
      ],
      "stateMutability": "view",
      "type": "function",
      "constant": true
    }
  ],
  "bytecode": "0x608060405234801561001057600080fd5b5033600160006101000a81548173ffffffffffffffffffffffffffffffffffffffff021916908373ffffffffffffffffffffffffffffffffffffffff160217905550610471806100616000396000f3fe608060405234801561001057600080fd5b50600436106100415760003560e01c80630b1dc17c146100465780638604e3db14610076578063945aaa44146100a6575b600080fd5b610060600480360381019061005b9190610335565b6100c2565b60405161006d91906103bc565b60405180910390f35b610090600480360381019061008b9190610335565b610179565b60405161009d91906103bc565b60405180910390f35b6100c060048036038101906100bb919061035e565b610230565b005b60003373ffffffffffffffffffffffffffffffffffffffff16600160009054906101000a900473ffffffffffffffffffffffffffffffffffffffff1673ffffffffffffffffffffffffffffffffffffffff161461011e57600080fd5b600080837bffffffffffffffffffffffffffffffffffffffffffffffffffffffff19167bffffffffffffffffffffffffffffffffffffffffffffffffffffffff19168152602001908152602001600020600101549050919050565b60003373ffffffffffffffffffffffffffffffffffffffff16600160009054906101000a900473ffffffffffffffffffffffffffffffffffffffff1673ffffffffffffffffffffffffffffffffffffffff16146101d557600080fd5b600080837bffffffffffffffffffffffffffffffffffffffffffffffffffffffff19167bffffffffffffffffffffffffffffffffffffffffffffffffffffffff19168152602001908152602001600020600001549050919050565b3373ffffffffffffffffffffffffffffffffffffffff16600160009054906101000a900473ffffffffffffffffffffffffffffffffffffffff1673ffffffffffffffffffffffffffffffffffffffff161461028a57600080fd5b604051806040016040528083815260200182815250600080857bffffffffffffffffffffffffffffffffffffffffffffffffffffffff19167bffffffffffffffffffffffffffffffffffffffffffffffffffffffff191681526020019081526020016000206000820151816000015560208201518160010155905050505050565b60008135905061031a8161040d565b92915050565b60008135905061032f81610424565b92915050565b60006020828403121561034757600080fd5b60006103558482850161030b565b91505092915050565b60008060006060848603121561037357600080fd5b60006103818682870161030b565b935050602061039286828701610320565b92505060406103a386828701610320565b9150509250925092565b6103b681610403565b82525050565b60006020820190506103d160008301846103ad565b92915050565b60007fffffffff0000000000000000000000000000000000000000000000000000000082169050919050565b6000819050919050565b610416816103d7565b811461042157600080fd5b50565b61042d81610403565b811461043857600080fd5b5056fea2646970667358221220bc59672f8e63c486d6f60dffaf1dbf60b650c508670e7710baa37d9958c9a45d64736f6c63430008040033",
  "immutableReferences": {},
  "source": "// SPDX-License-Identifier: MIT\r\npragma solidity ^0.8.4;\r\n\r\ncontract Stocks {\r\n    /// quote structure\r\n    struct stock {\r\n        uint256 price;\r\n        uint256 volume;\r\n    }\r\n    /// quotes by symbol\r\n    mapping(bytes4 => stock) stockQuote;\r\n    /// Contract owner\r\n    address oracleOwner;\r\n\r\n    modifier onlyOwner() {\r\n        require(oracleOwner == msg.sender);\r\n        _;\r\n    }\r\n\r\n    constructor() {\r\n        oracleOwner = msg.sender;\r\n    }\r\n\r\n    /// Set the value of a stock\r\n    function setStock(\r\n        bytes4 symbol,\r\n        uint256 price,\r\n        uint256 volume\r\n    ) public onlyOwner {\r\n        stockQuote[symbol] = stock({price: price, volume: volume});\r\n    }\r\n\r\n    /// Get the value of a stock\r\n    function getStockPrice(bytes4 symbol)\r\n        public\r\n        view\r\n        onlyOwner\r\n        returns (uint256)\r\n    {\r\n        return stockQuote[symbol].price;\r\n    }\r\n\r\n    /// Get the value of volume traded for a stock\r\n    function getStockVolume(bytes4 symbol)\r\n        public\r\n        view\r\n        onlyOwner\r\n        returns (uint256)\r\n    {\r\n        return stockQuote[symbol].volume;\r\n    }\r\n}\r\n",
  "sourcePath": "C:/Users/Administrator/Desktop/Design Patterns/oracle/blockchain/contracts/Stocks.sol",
  "compiler": {
    "name": "solc",
    "version": "0.8.4+commit.c7e474f2.Emscripten.clang"
  },
  "schemaVersion": "3.4.1",
  "updatedAt": "2021-06-20T18:58:54.435Z",
  "networkType": "ethereum",
  "devdoc": {
    "kind": "dev",
    "methods": {},
    "version": 1
  },
  "userdoc": {
    "kind": "user",
    "methods": {
      "getStockPrice(bytes4)": {
        "notice": "Get the value of a stock"
      },
      "getStockVolume(bytes4)": {
        "notice": "Get the value of volume traded for a stock"
      },
      "setStock(bytes4,uint256,uint256)": {
        "notice": "Set the value of a stock"
      }
    },
    "version": 1
  }
}